{"abi":[{"type":"function","name":"fulfillRandomWords","inputs":[{"name":"requestId","type":"uint256","internalType":"uint256"},{"name":"randomWords","type":"uint256[]","internalType":"uint256[]"},{"name":"keyHash","type":"bytes32","internalType":"bytes32"}],"outputs":[],"stateMutability":"nonpayable"},{"type":"function","name":"keyHashToOracle","inputs":[{"name":"","type":"bytes32","internalType":"bytes32"}],"outputs":[{"name":"","type":"address","internalType":"address"}],"stateMutability":"view"},{"type":"function","name":"registerKeyHash","inputs":[{"name":"keyHash","type":"bytes32","internalType":"bytes32"},{"name":"oracle","type":"address","internalType":"address"}],"outputs":[],"stateMutability":"nonpayable"},{"type":"function","name":"requestCounter","inputs":[],"outputs":[{"name":"","type":"uint256","internalType":"uint256"}],"stateMutability":"view"},{"type":"function","name":"requestRandomWords","inputs":[{"name":"keyHash","type":"bytes32","internalType":"bytes32"},{"name":"","type":"uint64","internalType":"uint64"},{"name":"","type":"uint16","internalType":"uint16"},{"name":"","type":"uint32","internalType":"uint32"},{"name":"numWords","type":"uint32","internalType":"uint32"}],"outputs":[{"name":"requestId","type":"uint256","internalType":"uint256"}],"stateMutability":"nonpayable"},{"type":"function","name":"requests","inputs":[{"name":"","type":"uint256","internalType":"uint256"}],"outputs":[{"name":"requester","type":"address","internalType":"address"},{"name":"keyHash","type":"bytes32","internalType":"bytes32"},{"name":"numWords","type":"uint32","internalType":"uint32"},{"name":"fulfilled","type":"bool","internalType":"bool"}],"stateMutability":"view"},{"type":"event","name":"RandomWordsFulfilled","inputs":[{"name":"requestId","type":"uint256","indexed":true,"internalType":"uint256"},{"name":"randomWords","type":"uint256[]","indexed":false,"internalType":"uint256[]"}],"anonymous":false},{"type":"event","name":"RandomWordsRequested","inputs":[{"name":"requestId","type":"uint256","indexed":true,"internalType":"uint256"},{"name":"requester","type":"address","indexed":true,"internalType":"address"},{"name":"keyHash","type":"bytes32","indexed":true,"internalType":"bytes32"},{"name":"numWords","type":"uint32","indexed":false,"internalType":"uint32"}],"anonymous":false}],"bytecode":{"object":"0x6080604052348015600e575f5ffd5b50610c098061001c5f395ff3fe608060405234801561000f575f5ffd5b5060043610610060575f3560e01c80632b60af0b146100645780632e06ff06146100805780635d3b1d301461009c57806381d12c58146100cc578063973a814e146100ff5780639b73754a1461011d575b5f5ffd5b61007e6004803603810190610079919061064e565b61014d565b005b61009a60048036038101906100959190610719565b61033a565b005b6100b660048036038101906100b19190610804565b61038d565b6040516100c3919061088a565b60405180910390f35b6100e660048036038101906100e191906108a3565b6104e3565b6040516100f69493929190610915565b60405180910390f35b610107610549565b604051610114919061088a565b60405180910390f35b61013760048036038101906101329190610958565b61054f565b6040516101449190610983565b60405180910390f35b5f5f5f8681526020019081526020015f2090508060020160049054906101000a900460ff16156101b2576040517f08c379a00000000000000000000000000000000000000000000000000000000081526004016101a9906109f6565b60405180910390fd5b3373ffffffffffffffffffffffffffffffffffffffff1660025f8481526020019081526020015f205f9054906101000a900473ffffffffffffffffffffffffffffffffffffffff1673ffffffffffffffffffffffffffffffffffffffff1614610250576040517f08c379a000000000000000000000000000000000000000000000000000000000815260040161024790610a5e565b60405180910390fd5b60018160020160046101000a81548160ff021916908315150217905550805f015f9054906101000a900473ffffffffffffffffffffffffffffffffffffffff1673ffffffffffffffffffffffffffffffffffffffff16631fe543e38686866040518463ffffffff1660e01b81526004016102cc93929190610af4565b5f604051808303815f87803b1580156102e3575f5ffd5b505af11580156102f5573d5f5f3e3d5ffd5b50505050847ff45ee76115b0ed5f4ebe293254449fbe612bad36a53d52b87b6a40687adc48de858560405161032b929190610b24565b60405180910390a25050505050565b8060025f8481526020019081526020015f205f6101000a81548173ffffffffffffffffffffffffffffffffffffffff021916908373ffffffffffffffffffffffffffffffffffffffff1602179055505050565b5f60015f815461039c90610b73565b919050819055905060405180608001604052803373ffffffffffffffffffffffffffffffffffffffff1681526020018781526020018363ffffffff1681526020015f15158152505f5f8381526020019081526020015f205f820151815f015f6101000a81548173ffffffffffffffffffffffffffffffffffffffff021916908373ffffffffffffffffffffffffffffffffffffffff160217905550602082015181600101556040820151816002015f6101000a81548163ffffffff021916908363ffffffff16021790555060608201518160020160046101000a81548160ff021916908315150217905550905050853373ffffffffffffffffffffffffffffffffffffffff16827f155cadd35656f62e43f7a786b762cf98fe843e3b083b954b75c6278911f6da97856040516104d29190610bba565b60405180910390a495945050505050565b5f602052805f5260405f205f91509050805f015f9054906101000a900473ffffffffffffffffffffffffffffffffffffffff1690806001015490806002015f9054906101000a900463ffffffff16908060020160049054906101000a900460ff16905084565b60015481565b6002602052805f5260405f205f915054906101000a900473ffffffffffffffffffffffffffffffffffffffff1681565b5f5ffd5b5f5ffd5b5f819050919050565b61059981610587565b81146105a3575f5ffd5b50565b5f813590506105b481610590565b92915050565b5f5ffd5b5f5ffd5b5f5ffd5b5f5f83601f8401126105db576105da6105ba565b5b8235905067ffffffffffffffff8111156105f8576105f76105be565b5b602083019150836020820283011115610614576106136105c2565b5b9250929050565b5f819050919050565b61062d8161061b565b8114610637575f5ffd5b50565b5f8135905061064881610624565b92915050565b5f5f5f5f606085870312156106665761066561057f565b5b5f610673878288016105a6565b945050602085013567ffffffffffffffff81111561069457610693610583565b5b6106a0878288016105c6565b935093505060406106b38782880161063a565b91505092959194509250565b5f73ffffffffffffffffffffffffffffffffffffffff82169050919050565b5f6106e8826106bf565b9050919050565b6106f8816106de565b8114610702575f5ffd5b50565b5f81359050610713816106ef565b92915050565b5f5f6040838503121561072f5761072e61057f565b5b5f61073c8582860161063a565b925050602061074d85828601610705565b9150509250929050565b5f67ffffffffffffffff82169050919050565b61077381610757565b811461077d575f5ffd5b50565b5f8135905061078e8161076a565b92915050565b5f61ffff82169050919050565b6107aa81610794565b81146107b4575f5ffd5b50565b5f813590506107c5816107a1565b92915050565b5f63ffffffff82169050919050565b6107e3816107cb565b81146107ed575f5ffd5b50565b5f813590506107fe816107da565b92915050565b5f5f5f5f5f60a0868803121561081d5761081c61057f565b5b5f61082a8882890161063a565b955050602061083b88828901610780565b945050604061084c888289016107b7565b935050606061085d888289016107f0565b925050608061086e888289016107f0565b9150509295509295909350565b61088481610587565b82525050565b5f60208201905061089d5f83018461087b565b92915050565b5f602082840312156108b8576108b761057f565b5b5f6108c5848285016105a6565b91505092915050565b6108d7816106de565b82525050565b6108e68161061b565b82525050565b6108f5816107cb565b82525050565b5f8115159050919050565b61090f816108fb565b82525050565b5f6080820190506109285f8301876108ce565b61093560208301866108dd565b61094260408301856108ec565b61094f6060830184610906565b95945050505050565b5f6020828403121561096d5761096c61057f565b5b5f61097a8482850161063a565b91505092915050565b5f6020820190506109965f8301846108ce565b92915050565b5f82825260208201905092915050565b7f416c72656164792066756c66696c6c65640000000000000000000000000000005f82015250565b5f6109e060118361099c565b91506109eb826109ac565b602082019050919050565b5f6020820190508181035f830152610a0d816109d4565b9050919050565b7f556e617574686f72697a6564206f7261636c65000000000000000000000000005f82015250565b5f610a4860138361099c565b9150610a5382610a14565b602082019050919050565b5f6020820190508181035f830152610a7581610a3c565b9050919050565b5f82825260208201905092915050565b5f5ffd5b82818337505050565b5f610aa48385610a7c565b93507f07ffffffffffffffffffffffffffffffffffffffffffffffffffffffffffffff831115610ad757610ad6610a8c565b5b602083029250610ae8838584610a90565b82840190509392505050565b5f604082019050610b075f83018661087b565b8181036020830152610b1a818486610a99565b9050949350505050565b5f6020820190508181035f830152610b3d818486610a99565b90509392505050565b7f4e487b71000000000000000000000000000000000000000000000000000000005f52601160045260245ffd5b5f610b7d82610587565b91507fffffffffffffffffffffffffffffffffffffffffffffffffffffffffffffffff8203610baf57610bae610b46565b5b600182019050919050565b5f602082019050610bcd5f8301846108ec565b9291505056fea264697066735822122066cc42ca4c8f946c4fe6ab2da99f53a5df75b9fd1933771ae821aa63076d5fb964736f6c634300081c0033","linkReferences":{}},"methodIdentifiers":{"fulfillRandomWords(uint256,uint256[],bytes32)":"2b60af0b","keyHashToOracle(bytes32)":"9b73754a","registerKeyHash(bytes32,address)":"2e06ff06","requestCounter()":"973a814e","requestRandomWords(bytes32,uint64,uint16,uint32,uint32)":"5d3b1d30","requests(uint256)":"81d12c58"},"id":21}