{"abi":[{"type":"function","name":"fulfillRandomWords","inputs":[{"name":"requestId","type":"uint256","internalType":"uint256"},{"name":"randomWords","type":"uint256[]","internalType":"uint256[]"}],"outputs":[],"stateMutability":"nonpayable"},{"type":"function","name":"requestCounter","inputs":[],"outputs":[{"name":"","type":"uint256","internalType":"uint256"}],"stateMutability":"view"},{"type":"function","name":"requestRandomWords","inputs":[{"name":"numWords","type":"uint32","internalType":"uint32"}],"outputs":[{"name":"requestId","type":"uint256","internalType":"uint256"}],"stateMutability":"nonpayable"},{"type":"function","name":"requests","inputs":[{"name":"","type":"uint256","internalType":"uint256"}],"outputs":[{"name":"requester","type":"address","internalType":"address"},{"name":"numWords","type":"uint32","internalType":"uint32"},{"name":"fulfilled","type":"bool","internalType":"bool"}],"stateMutability":"view"},{"type":"event","name":"RandomWordsFulfilled","inputs":[{"name":"requestId","type":"uint256","indexed":true,"internalType":"uint256"},{"name":"randomWords","type":"uint256[]","indexed":false,"internalType":"uint256[]"}],"anonymous":false},{"type":"event","name":"RandomWordsRequested","inputs":[{"name":"requestId","type":"uint256","indexed":true,"internalType":"uint256"},{"name":"requester","type":"address","indexed":true,"internalType":"address"},{"name":"numWords","type":"uint32","indexed":false,"internalType":"uint32"}],"anonymous":false}],"bytecode":{"object":"0x6080604052348015600e575f5ffd5b5061082d8061001c5f395ff3fe608060405234801561000f575f5ffd5b506004361061004a575f3560e01c806338ba46141461004e57806381d12c581461006a578063973a814e1461009c578063e726f2e1146100ba575b5f5ffd5b61006860048036038101906100639190610477565b6100ea565b005b610084600480360381019061007f91906104d4565b610236565b60405161009393929190610576565b60405180910390f35b6100a4610295565b6040516100b191906105ba565b60405180910390f35b6100d460048036038101906100cf91906105fd565b61029b565b6040516100e191906105ba565b60405180910390f35b5f5f5f8581526020019081526020015f209050805f0160189054906101000a900460ff161561014e576040517f08c379a000000000000000000000000000000000000000000000000000000000815260040161014590610682565b60405180910390fd5b6001815f0160186101000a81548160ff021916908315150217905550805f015f9054906101000a900473ffffffffffffffffffffffffffffffffffffffff1673ffffffffffffffffffffffffffffffffffffffff16631fe543e38585856040518463ffffffff1660e01b81526004016101c993929190610718565b5f604051808303815f87803b1580156101e0575f5ffd5b505af11580156101f2573d5f5f3e3d5ffd5b50505050837ff45ee76115b0ed5f4ebe293254449fbe612bad36a53d52b87b6a40687adc48de8484604051610228929190610748565b60405180910390a250505050565b5f602052805f5260405f205f91509050805f015f9054906101000a900473ffffffffffffffffffffffffffffffffffffffff1690805f0160149054906101000a900463ffffffff1690805f0160189054906101000a900460ff16905083565b60015481565b5f60015f81546102aa90610797565b919050819055905060405180606001604052803373ffffffffffffffffffffffffffffffffffffffff1681526020018363ffffffff1681526020015f15158152505f5f8381526020019081526020015f205f820151815f015f6101000a81548173ffffffffffffffffffffffffffffffffffffffff021916908373ffffffffffffffffffffffffffffffffffffffff1602179055506020820151815f0160146101000a81548163ffffffff021916908363ffffffff1602179055506040820151815f0160186101000a81548160ff0219169083151502179055509050503373ffffffffffffffffffffffffffffffffffffffff16817fb1ef6f09514dece37223c1ec7728e9c8c30e319e98425b5a2570f5123587377c846040516103ce91906107de565b60405180910390a3919050565b5f5ffd5b5f5ffd5b5f819050919050565b6103f5816103e3565b81146103ff575f5ffd5b50565b5f81359050610410816103ec565b92915050565b5f5ffd5b5f5ffd5b5f5ffd5b5f5f83601f84011261043757610436610416565b5b8235905067ffffffffffffffff8111156104545761045361041a565b5b6020830191508360208202830111156104705761046f61041e565b5b9250929050565b5f5f5f6040848603121561048e5761048d6103db565b5b5f61049b86828701610402565b935050602084013567ffffffffffffffff8111156104bc576104bb6103df565b5b6104c886828701610422565b92509250509250925092565b5f602082840312156104e9576104e86103db565b5b5f6104f684828501610402565b91505092915050565b5f73ffffffffffffffffffffffffffffffffffffffff82169050919050565b5f610528826104ff565b9050919050565b6105388161051e565b82525050565b5f63ffffffff82169050919050565b6105568161053e565b82525050565b5f8115159050919050565b6105708161055c565b82525050565b5f6060820190506105895f83018661052f565b610596602083018561054d565b6105a36040830184610567565b949350505050565b6105b4816103e3565b82525050565b5f6020820190506105cd5f8301846105ab565b92915050565b6105dc8161053e565b81146105e6575f5ffd5b50565b5f813590506105f7816105d3565b92915050565b5f60208284031215610612576106116103db565b5b5f61061f848285016105e9565b91505092915050565b5f82825260208201905092915050565b7f416c72656164792066756c66696c6c65640000000000000000000000000000005f82015250565b5f61066c601183610628565b915061067782610638565b602082019050919050565b5f6020820190508181035f83015261069981610660565b9050919050565b5f82825260208201905092915050565b5f5ffd5b82818337505050565b5f6106c883856106a0565b93507f07ffffffffffffffffffffffffffffffffffffffffffffffffffffffffffffff8311156106fb576106fa6106b0565b5b60208302925061070c8385846106b4565b82840190509392505050565b5f60408201905061072b5f8301866105ab565b818103602083015261073e8184866106bd565b9050949350505050565b5f6020820190508181035f8301526107618184866106bd565b90509392505050565b7f4e487b71000000000000000000000000000000000000000000000000000000005f52601160045260245ffd5b5f6107a1826103e3565b91507fffffffffffffffffffffffffffffffffffffffffffffffffffffffffffffffff82036107d3576107d261076a565b5b600182019050919050565b5f6020820190506107f15f83018461054d565b9291505056fea2646970667358221220fd69074cdadd3a9c0cde0a32db8061c247d8d8f67d667c8aaeac9b666ed92d7464736f6c634300081c0033","linkReferences":{}},"methodIdentifiers":{"fulfillRandomWords(uint256,uint256[])":"38ba4614","requestCounter()":"973a814e","requestRandomWords(uint32)":"e726f2e1","requests(uint256)":"81d12c58"},"id":22}